:100000000C945A180C948B180C948B180C948B1815
:100010000C948B180C948B180C948B180C948B18D4
:100020000C948B180C948B180C948B180C948B18C4
:100030000C948B180C94FFC80C948B180C948B1890
:100040000C948B180C943F230C948B180C948B18E5
:100050000C948B180C948B180C9445210C9483CC25
:100060000C948B180C94E4880C9491890C948B1844
:100070000C948B180C948B180C948B180C948B1874
:100080000C948B180C948B180C948B180C948B1864
:100090000C948B180C948B180C948B180C948B1854
:1000A0000C948B180C948B180C948B180C948B1844
:1000B0000C948B180C948B180C948B180C948B1834
:1000C0000C948B180C948B180C948B180C948B1824
:1000D0000C948B180C948B180C9434A80C94F5A7E2
:1000E0000C948B18084AD73B3BCE016E84BCBFFDF5
:1000F000C12F3D6C74319ABD56833DDA3D00C77FF8
:1001000011BED9E4BB4C3E916BAAAABE0000008090
:100110003F05A84CCDB2D44EB93836A9020C50B91F
:10012000918688083CA6AAAA2ABE000000803F004B
:100130000C94867A0C9442CA0C9470C00C947ED6AF
:100140000C940FCA0C94577A0C946FCA0C942DDD42
:100150000C9428CA0C944EE20C9497CA0C94A6E412
:100160000C9474C00C9416D70C94D6E10C94A1CACC
:100170000C9426DF0C948BC00C946AC00C94768986
:100180000C9405DE0C9400C00C9483CA0C9427E5F3
:100190000C9466C00C9472890C94EAD60C947BDFA4
:1001A0000C9459C00C9432CA0C941FE20C94CFDF0B
:1001B0000C9451D60C94707A0C9456E70C946ADE29
:1001C0000C9499D60C9456CA0C94D5D60C94FDDE9A
:1001D0000C94357A0C9460C00C9421DD0C9448E5A5
:1001E0000C942A7A0C9449890C946A890C94B3E58E
:1001F0000C94B1E40C94AA4A0C948CC00C9455C095
:100200000C9466890C9421E50C9426E00C945F898B
:100210000C9485D70C9478C00C9482C00C948DCA31
:100220000C9460CA0C94DEDD0C9490C00C941E8972
:100230000C944CCA0C9486C00C9414CA0C94B8D676
:100240000C9451C00C944BC00C94A6790C943ACAEF
:100250000C945DC00C9407DE0C94EE790C9479CA72
:100260000C94897A0C94EBD70C9457890C941ECA81
:100270000C9491D80C947C890C944FDF0C946E896B
:100280000C948DE10C9407CA0C94ADDE0C947EC0E6
:100290004E414E494E495459494E46CDCCCC3D0A6B
:1002A000D7233C17B7D13877CC2B329595E6241F4E
:1002B000B14F0A000020410000C84200401C462007
:1002C000BCBE4CCA1B0E5AAEC59D74526573656E9A
:1002D000643A20006F6B0020746F6F206C6F6E6744
:1002E00020657874727573696F6E207072657665BB
:1002F0006E7465640A0020636F6C642065787472A4
:100300007573696F6E2070726576656E7465640AC8
:1003100000627573793A2070617573656420666F49
:100320007220696E7075740A00627573793A207074
:10033000617573656420666F7220757365720A005B
:10034000627573793A2070726F63657373696E6753
:100350000A004A3135004B494C4C20636175736586
:1003600064206279204B494C4C20627574746F6E26
:100370002F70696E0A004B494C4C206361757365A0
:100380006420627920746F6F206D75636820696ED8
:100390006163746976652074696D65202D206375CD
:1003A0007272656E7420636F6D6D616E643A2000C9
:1003B0000000A0C000000000000000000000484253
:1003C0000000484200008040000000005761726E4B
:1003D000696E673A20486F6D696E672042756D706F
:1003E0002044697669736F72203C20310A00020252
:1003F000040000A0400000A0400000004000005C9D
:10040000430000574300004D43FFFFFF486F7465F2
:100410006E6420746F6F20636F6C640A007C3C3ED6
:100420005E2B3D3F2F5B5D3B2C2A225C00457272A8
:100430006F722077726974696E6720746F2045450A
:1004400050524F4D210A00454550524F4D20646196
:10045000746173697A65206572726F722E0A002961
:100460000A002062797465733B2063726320005335
:10047000657474696E67732053746F7265642028A5
:1004800000290A002062797465733B20637263203F
:10049000002073746F7265642073657474696E678D
:1004A000732072657472696576656420280020285F
:1004B00063616C63756C6174656429210A00202195
:1004C0003D2000454550524F4D20435243206D6919
:1004D000736D61746368202D202873746F72656476
:1004E0002920002053697A653A2000496E646578B6
:1004F0003A2000204D61726C696E3D563536290AEE
:100500000028454550524F4D3D00454550524F4DF6
:100510002076657273696F6E206D69736D617463A7
:1005200068200048617264636F6465642044656696
:1005300061756C742053657474696E6773204C6FB9
:10054000616465640A00B80B0000D00700003C003D
:100550000000102700000000FA430000FA430000EA
:10056000C040000070420000A0420000A042000015
:10057000C8433333B94220286D6D290020204D3601
:10058000303320002055004C0046696C616D656E6B
:1005900074206C6F61642F756E6C6F6164206C6584
:1005A0006E677468733A0A0020204D393030204B52
:1005B000004C696E65617220416476616E63653AD4
:1005C0000A0020440020490020204D3330342050C0
:1005D0000020440020490020204D333031205000BD
:1005E0005049442073657474696E67733A0A002039
:1005F0005A0020204D36363600456E6473746F7095
:100600002061646A7573746D656E743A0A00205ACD
:100610000020590020204732392053332058002031
:100620005A0020204D3432302053004D657368202D
:10063000426564204C6576656C696E673A0A0020F5
:100640005A0020590020204D323036205800486F83
:100650006D65206F66667365743A0A002045002058
:100660005A00205900205800205400205300202018
:100670004D32303520510020453C6D61785F655F1B
:100680006A65726B3E0020583C6D61785F785F6AE6
:1006900065726B3E20593C6D61785F795F6A657267
:1006A0006B3E205A3C6D61785F7A5F6A65726B3E83
:1006B00000416476616E6365643A20513C6D696EF9
:1006C0005F7365676D656E745F74696D655F757383
:1006D0003E20533C6D696E5F66656564726174654A
:1006E0003E20543C6D696E5F74726176656C5F6626
:1006F000656564726174653E0020540020520020DC
:10070000204D323034205000416363656C65726166
:1007100074696F6E2028756E6974732F7332293A6D
:1007200020503C7072696E745F616363656C3E203B
:10073000523C726574726163745F616363656C3EA1
:1007400020543C74726176656C5F616363656C3ED6
:100750000A00204500205A0020590020204D323048
:10076000312058004D6178696D756D204163636576
:100770006C65726174696F6E2028756E6974732F71
:100780007332293A0A00204500205A0020590020DF
:10079000204D3230332058004D6178696D756D20E1
:1007A0006665656472617465732028756E6974731B
:1007B0002F73293A0A00204500205A0020590020B2
:1007C000204D393220580053746570732070657263
:1007D00020756E69743A0A0020204D323030204472
:1007E000300A0020204D323030204400204469730C
:1007F00061626C65640A0046696C616D656E7420A7
:1008000073657474696E67733A0020204732312033
:100810002020203B00545249474745524544006F31
:1008200070656E003A20007A325F6D696E007A5F03
:100830006D696E00795F6D696E00785F6D696E003D
:100840005265706F7274696E6720656E6473746F41
:1008500070207374617475730A000A4D6561737555
:1008600072656420706F696E74733A0A005A206F63
:1008700066667365743A20004E756D20582C593A9F
:1008800020352C350A0000000001000000010000A6
:100890008000555555000000400033333300AAAAAC
:1008A0002A004992240000002000C7711C00999979
:1008B0001900D1451700555515003BB113002449C7
:1008C000120011111100000010000F0F0F00E3388B
:1008D0000E0043790D00CCCC0C00C3300C00E8A214
:1008E0000B0064210B00AAAA0A00703D0A009DD8E3
:1008F0000900427B090092240900DCD308008888A3
:1009000008001042080000000800F0C107008787B7
:10091000070075500700711C07003EEB0600A1BCE4
:1009200006006990060066660600703E06006118C3
:10093000060017F4050074D105005BB00500B29005
:100940000500627205005555050078390500B81E8E
:100950000500050505004EEC040087D40400A1BD88
:10096000040090A7040049920400C17D0400EE69D0
:100970000400C7560400444404005C32040008210B
:10098000040041100400000004003FF00300F8E000
:10099000030026D20300C3C30300CCB503003AA86A
:1009A00003000A9B0300388E0300C08103009F757B
:1009B0000300D0690300505E03001D530300344858
:1009C0000300913D03003333030016290300381F51
:1009D000030097150300300C0300030303000BFA18
:1009E000020049F10200BAE802005CE002002DD8E2
:1009F00002002DD0020059C80200B0C0020031B977
:100A00000200DAB10200AAAA0200A0A30200BC9C64
:100A10000200FA9502005C8F0200DF8802008282E9
:100A20000200457C02002776020027700200436A1C
:100A300002007C640200D05E02003F590200C853ED
:100A4000020020746F6F206C6F6E6720657874727F
:100A50007573696F6E2070726576656E7465640A71
:100A60000020636F6C6420657874727573696F6EB3
:100A70002070726576656E7465640A00FFFDFCFA8D
:100A8000F8F6F4F2F0EEECEAE9E7E5E3E1E0DEDCCB
:100A9000DAD9D7D5D4D2D0CFCDCBCAC8C7C5C3C277
:100AA000C0BFBDBCBAB9B7B6B4B3B2B0AFADACAAF3
:100AB000A9A8A6A5A4A2A1A09E9D9C9A9998979545
:100AC000949392908F8E8D8B8A8988878684838277
:100AD00081807F7E7D7B7A79787776757473727189
:100AE000706F6E6D6C6B6A6968676665646362617E
:100AF000605F5E5D5C5B5A59585857565554535267
:100B00005150504F4E4D4C4B4A4A49484746464536
:100B10004443424241403F3E3E3D3C3B3B3A3938F4
:100B20003837363535343332323130302F2E2E2DA2
:100B30002C2B2B2A29292827272625252423232245
:100B4000212120201F1E1E1D1C1C1B1B1A191918D9
:100B500018171616151514131312121111100F0F62
:100B60000E0E0D0D0C0C0B0A0A09090808070706E2
:100B700006050504040303020201000024F4D43036
:100B800050C38E20C2A24017828B7011127A910D31
:100B9000816CD90AA861E108C7586607615143060C
:100BA0001E4B5D05C145A7041A411104093D980378
:100BB000713931034036DB0265339102D43054027F
:100BC000802E1D02632CEE01752AC501B028A001FC
:100BD000102781018F2564012B244B01E022340171
:100BE000AC211F018D200D01801FFC00841EED0033
:100BF000971DDF00B81CD200E61BC600201BBC00FE
:100C0000641AB200B219A8000A19A0006A18990063
:100C1000D117910040178B00B516840031167E0065
:100C2000B31579003A157300C7146F0058146A00A1
:100C3000EE1366008813630025135E00C7125B0085
:100C40006C12570015125400C111510070114F0061
:100C500021114B00D61049008D104700461044006A
:100C600002104200C00F4000800F3E00420F3C00C7
:100C7000060F3B00CB0E3800930E37005C0E35009C
:100C8000270E3400F30D3200C10D3100900D3000FD
:100C9000600D2E00320D2D00050D2C00D90C2B00FF
:100CA000AE0C2900850C29005C0C2700350C2700B0
:100CB0000E0C2600E80B2400C40B2400A00B23001C
:100CC0007D0B23005A0B2100390B2100180B20004B
:100CD000F80A1F00D90A1E00BB0A1E009D0A1D004B
:100CE000800A1D00630A1C00470A1B002C0A1B0017
:100CF000110A1A00F7091A00DD091900C4091900C0
:100D0000AB091900920917007B0918006309170045
:100D10004C09160036091600200916000A091500AC
:100D2000F5081500E0081400CC081400B8081400F9
:100D3000A4081400900813007D0812006B0813002B
:100D40005808120046081200340811002308110048
:100D50001208110001081100F0071000E007100050
:100D6000D0071000C0071000B0070F00A107100047
:100D700091070E0083070F0074070F0065070E0030
:100D800057070E0049070E003B070D002E070E0007
:100D900020070D0013070D0006070D00F9060C00D3
:100DA000ED060D00E0060C00D4060C00C8060C0091
:100DB000BC060C00B0060C00A4060B0099060C0043
:100DC0008D060B0082060B0077060B006C060B00ED
:100DD00061060A0057060B004C060A0042060A008C
:100DE00038060A002E060A0024060A001A060A001F
:100DF0001006090007060A00FD050900F4050900B0
:100E0000EB050900E2050900D9050900D005090034
:100E1000C7050900BE050900B5050800AD050800B5
:100E2000A50509009C050800940508008C0508002C
:100E3000840508007C050800740508006C0507009F
:100E4000650508005D050700560508004E0507000A
:100E50004705070040050800380507003105070071
:100E60002A050700230507001C05060016050700D4
:100E70000F0507000805060002050700FB04060031
:100E8000F5040700EE040600E8040600E20407008B
:100E9000DB040600D5040600CF040600C9040600E2
:100EA000C3040600BD040600B7040600B104050033
:100EB000AC040600A6040600A00405009B0406007E
:100EC00095040500900406008A04050085040500C9
:100ED000800406007A04050075040500700405000E
:100EE0006B04050066040500610405005C04050050
:100EF00057040500520405004D0405004804050090
:100F0000430405003E0404003A04050035040500CE
:100F1000300404002C040500270404002304050009
:100F20001E0404001A040400160405001104040041
:100F30000D04040009040500040404000004040076
:100F4000FC030400F8030400F4030400F0030400AD
:100F5000EC030400E8030400E4030400E0030400DD
:100F6000DC030400D8030400D4030400D00304000D
:100F7000CC030400C8030300C503030024F404D910
:100F8000201BC40C5C0E9804C4095F026507710144
:100F9000F405F900FB04B30048048700C1036900AD
:100FA0005803550003034500BE023A008402310095
:100FB00053022A002902250004022000E4011C003B
:100FC000C8011900AF011700980114008401130033
:100FD000710110006101100051010E0043010D006C
:100FE00036010B002B010B0020010B00150109003D
:100FF0000C01090003010800FB000800F3000800D1
:10100000EB000700E4000600DE000600D800060042
:10101000D2000600CC000500C7000500C200050094
:10102000BD000400B9000400B5000400B1000400D4
:10103000AD000400A9000400A5000300A200030005
:101040009F0004009B00030098000300950002002D
:1010500093000300900003008D0002008B0003004A
:101060008800020086000200840003008100020064
:101070007F0002007D0002007B0002007900020078
:101080007700010076000200740002007200010087
:10109000710002006F0002006D0001006C00020090
:1010A0006A0001006900020067000100660001009B
:1010B000650001006400020062000100610001009F
:1010C000600001005F0002005D0001005C000100A3
:1010D0005B0001005A0001005900010058000100A6
:1010E00057000100560001005500010054000100A6
:1010F00053000000530001005200010051000100A4
:10110000500001004F0001004E0000004E000100A1
:101110004D0001004C0001004B0000004B0001009D
:101120004A00010049000100480000004800010099
:101130004700010046000000460001004500000095
:10114000450001004400010043000000430001008D
:101150004200000042000100410000004100010087
:10116000400001003F0000003F0001003E00000081
:101170003E0001003D0000003D0001003C00000079
:101180003C0000003C0001003B0000003B0001006F
:101190003A0000003A000100390000003900010067
:1011A000380000003800000038000100370000005F
:1011B0003700010036000000360000003600010054
:1011C000350000003500000035000100340000004B
:1011D0003400000034000100330000003300000040
:1011E0003300010032000000320000003200010034
:1011F000310000003100000031000100300000002B
:1012000030000000300001002F0000002F0000001F
:101210002F0000002F0001002E0000002E00000013
:101220002E0001002D0000002D0000002D00000008
:101230002D0001002C0000002C0000002C000000FC
:101240002C0001002B0000002B0000002B000000F0
:101250002B0001002A0000002A0000002A000000E4
:101260002A000100290000002900000029000000D8
:1012700029000000290001002800000028000000CB
:1012800028000000280000002800010027000000BE
:1012900027000000270000002700000027000100B1
:1012A00026000000260000002600000026000000A6
:1012B0002600010025000000250000002500000098
:1012C000250000002500000025000100240000008A
:1012D000240000002400000024000000240001007D
:1012E0002300000023000000230000002300000072
:1012F0002300000023000000230001002200000062
:101300002200000022000000220000002200000055
:101310002200010021000000210000002100000047
:101320002100000021000000210000002100010038
:10133000200000002000000020000000200000002D
:10134000200000002000000020000000200001001C
:101350001F0000001F0000001F0000001F00000011
:101360001F0000001F0000001F0001001E00000001
:101370001E0000001E0000001E000000232C0000C4
:10138000B8220000561800003A0F0000B80800000C
:10139000B1040000710200003E0100002CFFFFFFBD
:1013A000FFFF0001010101016265640A002C207346
:1013B000797374656D2073746F7070656421204853
:1013C00065617465725F49443A2000426564206833
:1013D000656174696E67206661696C656400486563
:1013E0006174696E67206661696C656400453120CF
:1013F00048656174696E67206661696C6564004860
:10140000656174696E67206661696C65640070016E
:101410002C0190012701B0012201C0011D01F00142
:1014200018011002130130020E016002090190023E
:101430000401C002FF000003FA004003F50080032E
:10144000F000D003EB002004E6007004E100E004AB
:10145000DC004005D700C005D2004006CD00D00614
:10146000C8008007C3003008BE00F008B900C009FA
:10147000B400B00AAF00B00BAA00D00CA500000E5B
:10148000A000500F9B00C010960050129100001455
:101490008C00C0158700B0178200B0197D00D01BEA
:1014A0007800001E730040206E0090226900F02436
:1014B000640040275F0090295A00E02B5500102E51
:1014C000500020304B0010324600E0334100903590
:1014D0003C001037370070383200A0392D00B03A88
:1014E0002800A03B2300603C1E00103D1900903DE9
:1014F0001400103E0F00703E0A00C03E0500003F81
:101500000000403FFBFF803FF6FFC03FF1FF453149
:1015100020544845524D414C2052554E4157415957
:101520000042454420544845524D414C2052554EAE
:101530004157415900546865726D616C2052756E57
:1015400061776179004531204572723A204D4158EA
:1015500054454D50004572723A204D415854454D06
:101560005020424544004D415854454D502074721E
:1015700069676765726564004531204572723A207B
:101580004D494E54454D50004572723A204D494EDA
:1015900054454D5020424544004D494E54454D5010
:1015A00020747269676765726564004D383420582D
:1015B0002059205A204500202F00434F4D4D554EB5
:1015C00049434154494F4E0044525952554E0045EB
:1015D00052524F525300494E464F004543484F0028
:1015E000696E206D6F76655F746F2829206665656A
:1015F000645F76616C756520666F722058593A0099
:101600002C2065793D0029202D3E202865783D005D
:101610002C2073793D0020436F6E6E656374696E94
:1016200067207769746820766572746963616C20DD
:101630006C696E65202873783D002C2065793D002B
:1016400029202D3E202865783D002C2073793D000F
:1016500020436F6E6E656374696E67207769746886
:1016600020686F72697A6F6E74616C206C696E6548
:10167000202873783D003F5370656369666965642F
:1016800020582C5920636F6F7264696E61746520F5
:101690006F7574206F6620626F756E64732E0A001A
:1016A0003F28522965706561742076616C756520EC
:1016B0006E6F7420706C61757369626C653B206D30
:1016C000757374206265206174206C656173742089
:1016D000312E0A003F2852296570656174206D75AE
:1016E0007374206265207370656369666965642040
:1016F0007768656E206E6F74207573696E67206100
:101700006E204C43442E0A003F537065636966693E
:101710006564206E6F7A7A6C652074656D70657291
:101720006174757265206E6F7420706C6175736979
:10173000626C652E0A003F53706563696669656473
:101740002066696C616D656E742073697A65206EC0
:101750006F7420706C61757369626C652E0A003F4E
:10176000537065636966696564207072696D652090
:101770006C656E677468206E6F7420706C61757331
:1017800069626C652E0A003F5072696D65206C6558
:101790006E677468206D7573742062652073706560
:1017A000636966696564207768656E206E6F742072
:1017B0007573696E6720616E204C43442E0A003FAA
:1017C000537065636966696564206E6F7A7A6C65CB
:1017D0002073697A65206E6F7420706C617573690F
:1017E000626C652E0A003F496E76616C6964205216
:1017F000657472616374696F6E2F556E7265747271
:10180000616374696F6E20726174696F2E204D750B
:1018100073742062652077697468696E20356D6D18
:101820002E0A0020556E72657472616374696F6E62
:1018300020616D6F756E74206175746F6D61746970
:1018400063616C6C792073657420746F20003F5560
:101850006E72657472616374696F6E206C656E6719
:101860007468206D75737420626520737065636998
:10187000666965642E0A003F537065636966696531
:101880006420556E72657472616374696F6E206C4A
:10189000656E677468206E6F7420706C6175736913
:1018A000626C652E0A003F52657472616374696FE1
:1018B0006E206C656E677468206D75737420626548
:1018C000207370656369666965642E0A003F537012
:1018D00065636966696564205265747261637469E1
:1018E0006F6E206C656E677468206E6F7420706C0C
:1018F00061757369626C652E0A003F537065636998
:1019000066696564206C61796572206865696768DD
:1019100074206E6F7420706C61757369626C652ED3
:101920000A003F5370656369666965642062656497
:101930002074656D7065726174757265206E6F7468
:1019400020706C61757369626C65202834302D31AC
:10195000343043292E0A0047323620636F6D6D61A3
:101960006E6420737461727465642E2057616974AB
:10197000696E6720666F722068656174657228738E
:10198000292E0A002569730025696D2025697300D9
:101990002569682025696D20256973002569642003
:1019A0002569682025696D202569730025697920DE
:1019B000256964202569682025696D2025697300E3
:1019C000656E7175657565696E6720220050726974
:1019D0006E7465722073746F7070656420647565D1
:1019E00020746F206572726F72732E2046697820A2
:1019F000746865206572726F7220616E6420757301
:101A000065204D39393920746F20726573746172A5
:101A1000742E202854656D7065726174757265202E
:101A200069732072657365742E2053657420697420
:101A30002061667465722072657374617274696E78
:101A400067290A004E6F20436865636B73756D20CC
:101A500077697468206C696E65206E756D62657259
:101A60002C204C617374204C696E653A20004E6FD7
:101A700020436865636B73756D2077697468206CAB
:101A8000696E65206E756D6265722C204C61737491
:101A9000204C696E653A2000636865636B73756DF1
:101AA000206D69736D617463682C204C61737420C0
:101AB0004C696E653A20004C696E65204E756D620A
:101AC0006572206973206E6F74204C617374204CB2
:101AD000696E65204E756D6265722B312C204C61EC
:101AE0007374204C696E653A20004D313130004DE1
:101AF00033310053442072656164206572726F72E5
:101B00000A00446F6E65207072696E74696E67209A
:101B100066696C650A0020496E76616C69642065AF
:101B20007874727564657220000000A0C000000027
:101B30000000000000000057430000574300004D24
:101B400043206E6F7420656E74657265642E0A00A2
:101B500050726F7465637465642050696E0A004644
:101B6000696C616D656E7420757365643A2000530D
:101B7000746174733A20002C204C6F6E6765737427
:101B8000206A6F623A2000546F74616C2074696D32
:101B9000653A200053746174733A20002C2046612A
:101BA000696C65643A20002C2046696E697368652B
:101BB000643A20005072696E74733A200053746165
:101BC00074733A20004A3036004A3034004A3037C5
:101BD0000020573A004A3038004A30390020573A3E
:101BE00000205A3A0020593A0020436F756E742045
:101BF000583A0020453A00205A3A0020593A0058F5
:101C00003A003A004361703A00205A0020590058C7
:101C10000020204D61783A2000205A0020590058B9
:101C20000020204D696E3A20004F6E20004F6666FE
:101C300000536F667420656E6473746F70733A201E
:101C4000004B64200023646566696E652044454648
:101C500041554C545F004B69200023646566696EF2
:101C6000652044454641554C545F004B702000238D
:101C7000646566696E652044454641554C545F0075
:101C8000504944204175746F74756E652066696EA5
:101C90006973686564212050757420746865206CD0
:101CA000617374204B702C204B6920616E64204B53
:101CB0006420636F6E7374616E74732066726F6DEF
:101CC0002062656C6F7720696E746F20436F6E665B
:101CD000696775726174696F6E2E680A00504944B5
:101CE000204175746F74756E65206661696C6564FA
:101CF000212074696D656F75740A00453120544860
:101D000045524D414C2052554E4157415900424594
:101D10004420544845524D414C2052554E41574164
:101D20005900546865726D616C2052756E617761FF
:101D3000790045312048656174696E672066616984
:101D40006C6564004265642068656174696E672033
:101D50006661696C65640048656174696E672066D8
:101D600061696C656400504944204175746F7475F5
:101D70006E65206661696C6564212054656D7065CF
:101D800072617475726520746F6F20686967680A84
:101D900000204B643A2000204B693A2000204B7011
:101DA0003A20000A20436C617373696320504944F0
:101DB000200A002054753A2000204B753A2000205C
:101DC0006D61783A2000206D696E3A200020643AF7
:101DD000200020626961733A200050494420417517
:101DE000746F74756E652073746172740A00504963
:101DF00044204175746F74756E65206661696C6509
:101E000064212054656D706572617475726520740B
:101E10006F6F20686967680A0050494420417574F3
:101E20006F74756E65206661696C6564212042611E
:101E300064206578747275646572206E756D626574
:101E4000720A004F66660A0046616465204865694B
:101E50006768742000426564204C6576656C696E25
:101E60006720004661696C656420746F20656E614F
:101E7000626C6520426564204C6576656C696E67AE
:101E80000A004D65736820426564204C6576656C78
:101E900020646174613A0A004D65736820706F694F
:101EA0006E742063616E6E6F74206265207265735C
:101EB0006F6C7665640A004D34323120696E636F51
:101EC000727265637420706172616D6574657220F1
:101ED00075736167650A00496E736572742066697F
:101EE0006C616D656E7420616E642073656E642034
:101EF0004D3130380A0053656E64204D3130382042
:101F0000746F2068656174206E6F7A7A6C650A0060
:101F1000496E736572742066696C616D656E7420BC
:101F2000616E6420707265737320627574746F6E75
:101F300020286F72204D313038290A004D3838384A
:101F400020636F6F6C646F776E20726F7574696E4B
:101F50006520646F6E650A004D3834005461726705
:101F60006574206E6F7420726561636865642C20EF
:101F700071756575656420616E206172630A005534
:101F80006C7472616261736520636F6F6C646F77EC
:101F90006E20737461727465640A0047322F473390
:101FA0002062616420706172616D65746572730A8C
:101FB00000206F6620004D424C2047323920706F60
:101FC000696E742000290A0059206F7574206F66AD
:101FD0002072616E67652028312D00290A00582083
:101FE0006F7574206F662072616E67652028312DD1
:101FF000004D6573682070726F62696E6720646F50
:102000006E652E0A005374617274206D65736820CA
:1020100070726F62696E6720776974682022473238
:1020200039205331222066697273742E0A004732B8
:10203000380A473239205332004D65736820626593
:1020400064206C6576656C696E6720686173206ECC
:102050006F20646174612E0A0053746174653A20C4
:102060000053206F7574206F662072616E67652063
:1020700028302D35292E0A004D65736820706F6950
:102080006E742063616E6E6F74206265207265737A
:102090006F6C7665640A00456E642066696C652025
:1020A0006C6973740A00426567696E2066696C65C5
:1020B000206C6973740A004D31323500286E6F2030
:1020C00066696C65290043757272656E7420666975
:1020D0006C653A20005344207072696E74696E67B3
:1020E000206279746520004E6F7420534420707212
:1020F000696E74696E670A0044656C6574696F6E19
:10210000206661696C65642C2046696C653A200024
:1021100046696C652064656C657465643A0050724C
:10212000696E742074696D653A20006F6E2E0A0026
:102130006F66662E0A004732362044656275672056
:10214000006F666600DB15D615CF15C815BA1544A5
:10215000454255473A004D3131332053006F6B00F3
:10216000486F74656E6420746F6F20636F6C640ACF
:10217000002C20002C2000544845524D414C5F500B
:10218000524F54454354494F4E004155544F5245C8
:10219000504F52545F53445F53544154555300457C
:1021A0004D455247454E43595F50415253455200A9
:1021B000434153455F4C494748545F425249474861
:1021C000544E45535300544F47474C455F4C494785
:1021D00048545300534F4654574152455F504F5750
:1021E0004552004255494C445F50455243454E5478
:1021F000004C4556454C494E475F44415441005AB6
:102200005F50524F4245004155544F4C4556454C46
:10221000005052494E545F4A4F420050524F47526D
:10222000455353004155544F5245504F52545F54FB
:10223000454D5000564F4C554D455452494300456D
:102240004550524F4D0053455249414C5F584F4EF7
:102250005F584F4646004649524D574152455F4EE2
:10226000414D453A4D61726C696E20312E312E39E7
:102270002E3120284769746875622C206461766964
:102280006472616D69726F29204D41524C494E2D27
:102290004149334D5F56455253494F4E3A76312EA0
:1022A000342E3720534F555243455F434F44455FCB
:1022B00055524C3A68747470733A2F2F676974687A
:1022C00075622E636F6D2F646176696472616D69EA
:1022D000726F2F4D61726C696E2D4149334D2050E4
:1022E000524F544F434F4C5F56455253494F4E3A0D
:1022F000312E30204D414348494E455F5459504599
:102300003A416E796375626963206933204D656770
:10231000612045585452554445525F434F554E54E1
:102320003A3120555549443A6365646532613266F5
:102330002D343161322D343734382D396231322D1C
:102340006335356336326633363766660A002F2FBB
:102350002000205400205200416363656C65726167
:1023600074696F6E3A2050005741524E494E4721D2
:10237000204C6F77205A204A65726B206D6179205E
:102380006C65616420746F20756E77616E7465642E
:10239000207061757365732E0A00546F6F2066613B
:1023A000722066726F6D207265666572656E636518
:1023B00020706F696E740A0020466C6F773A2000B7
:1023C0000001363726032BFFFFFF3C3D382AFFFF75
:1023D000FFFF2E303E12FFFFFFFFFFFFFF0809FF48
:1023E0002C071A1C18FFFFFF08440A2C4324221E46
:1023F000496E76616C696420657874727564657283
:102400000A0020643A0020693A0020703A0043290B
:102410000A0061626C656420286D696E2074656DC8
:10242000702000436F6C6420657874727564657306
:1024300020617265200020643A0020693A00207013
:102440003A004E6F2063617365206C696768740A97
:1024500000454550524F4D204F4B0A00205A004432
:1024600075616C20456E6473746F702041646A7589
:1024700073746D656E7420286D6D293A20003F4B92
:102480002076616C7565206F7574206F66207261AF
:102490006E67652028302D3130292E0A0041647680
:1024A000616E6365204B3D0041637469766520452C
:1024B000787472756465723A2000496E76616C6951
:1024C000642065787472756465720A001000C90230
:1024D00010012C014001220170011801B0010E0110
:1024E000F00104015002FA00B002F0003003E600EF
:1024F000D003DC009004D2007005C800A006BE0026
:102500000008B400B009AA00D00BA000600E96002D
:1025100060118C000015820020197800C01D6E002B
:10252000A0226400B0275A00902C500000314600D1
:10253000E0343C0010383200903A2800603C1E0025
:10254000A03D1400803E0A00203F00002042403A97
:102550000020403A0000002100240027002A002D1E
:10256000003000330001010000040107010A0100EE
:10257000002200250028002B002E0031003400022C
:10258000010000050108010B0100002000230026C6
:102590000029002C002F003200000100000301067A
:1025A00001090105050505070508080808020202DA
:1025B000020A0A08080404040401010101010101DE
:1025C000010303030303030303040707070C0C0CB5
:1025D0000C0C0C0C0C02020202060606060606068D
:1025E000060B0B0B0B0B0B0B0B010210202008082A
:1025F0001020401020408002010201080402010165
:10260000020408102040808040201008040201804D
:1026100004020180402010080402010804020101A4
:1026200002040810204080010204081020408000AD
:10263000000A0B02090C0D0E08070304010000003C
:10264000000000000000000000000000000000008A
:102650000000000000000000000000121110000047
:10266000000000000000000000000000000000006A
:102670000000000000024A3135004A3132004A3180
:1026800037002020506C616E6E657242756666651B
:102690007242797465733A20002046726565204D58
:1026A000656D6F72793A2000436F6D70696C656477
:1026B0003A204E6F7620203120323032300A00200E
:1026C0007C20417574686F723A2028646176696471
:1026D00072616D69726F290A00323032302D3131EA
:1026E0002D303100204C6173742055706461746525
:1026F000643A200076312E342E370A004D61726C18
:10270000696E2D4149334D00312E312E392E310A5B
:10271000004D61726C696E0020536F667477617250
:10272000652052657365740A00205761746368649C
:102730006F672052657365740A002042726F776E6E
:10274000206F75742052657365740A002045787493
:1027500065726E616C2052657365740A00506F7704
:10276000657255700A0073746172740A004D3234D8
:10277000004D3233202573006175746F25692E6713
:10278000006572726F722077726974696E67207467
:102790006F2066696C650A00205A3A0020593A0099
:1027A00020583A00656E6473746F707320686974A2
:1027B0003A2000446F6E6520736176696E6720660B
:1027C000696C652E0A004D323900556E6B6E6F775D
:1027D0006E20636F6D6D616E643A202200496E73E6
:1027E0006572742066696C616D656E7420616E64DB
:1027F00020707265737320627574746F6E20286F19
:1028000072204D313038290A0043616E6E6F74209A
:10281000656E746572207375626469723A20004D4A
:10282000363030005370656369616C204D656E759C
:102830003A2046696C616D656E744368616E6765C8
:1028400020526573756D650A005370656369616C2C
:10285000204D656E753A2046696C616D656E7443F6
:1028600068616E67652050617573650A004739318C
:102870000A4731205A2D302E310A47393000537023
:10288000656369616C204D656E753A205A20446F0E
:10289000776E20302E310A004739310A4731205AED
:1028A0002D302E30320A473930005370656369612C
:1028B0006C204D656E753A205A20446F776E20303B
:1028C0002E30320A004739310A4731205A2B302E38
:1028D00030320A473930005370656369616C204DAE
:1028E000656E753A205A20557020302E30320A001D
:1028F0004739310A4731205A2B302E310A473930B7
:10290000005370656369616C204D656E753A205A9D
:1029100020557020302E310A0047323920533200C2
:102920005370656369616C204D656E753A204E6524
:102930007874204D65736820506F696E740A004783
:102940003239205331005370656369616C204D65E5
:102950006E753A205374617274204D657368204C13
:102960006576656C696E670A004D313430205336E8
:1029700030005370656369616C204D656E753A2057
:1029800050726568656174204265640A004D353097
:1029900032005370656369616C204D656E753A2035
:1029A0004C6F61642046572044656661756C747392
:1029B0000A004D353030005370656369616C204DFD
:1029C000656E753A205361766520454550524F4DEE
:1029D0000A004D33303320452D312053363020430B
:1029E00036205531005370656369616C204D656E0A
:1029F000753A204175746F2054756E6520486F7468
:102A0000626564205069640A004D313036205332CB
:102A100030340A4D333033204530205332313020AA
:102A2000433135205531005370656369616C204D29
:102A3000656E753A204175746F2054756E65204837
:102A40006F74656E64205049440A004D313038007F
:102A50004D313038004D3234004D3234003C53702B
:102A6000656369616C5F4D656E753E003C537065D2
:102A70006369616C5F4D656E753E002F002F002FFE
:102A8000002F2E2E0A002F2E2E002F2E2E003C530C
:102A900070656369616C5F4D656E753E0A003C53FD
:102AA00070656369616C204D656E753E003C5370C6
:102AB000656369616C204D656E753E003C46696CCE
:102AC000616D656E744368616E67652052657375EC
:102AD0006D653E003C46696C616D656E744368616E
:102AE0006E676520526573756D653E003C46696C86
:102AF000616D656E744368616E67652050617573C2
:102B0000653E003C46696C616D656E744368616E3C
:102B100067652050617573653E003C4C6F616420B1
:102B200046572044656661756C74733E003C4C6F7B
:102B300061642046572044656661756C74733E007D
:102B40003C4175746F2054756E6520486F746265E2
:102B500064205049443E003C4175746F2054756EAA
:102B60006520486F74626564205049443E003C41D2
:102B700075746F2054756E6520486F74656E64209F
:102B80005049443E003C4175746F2054756E652079
:102B9000486F74656E64205049443E003C45786936
:102BA000743E003C457869743E003C536176652074
:102BB000454550524F4D3E003C536176652045459A
:102BC00050524F4D3E003C4E657874204D65736801
:102BD00020506F696E743E003C4E657874204D65E0
:102BE000736820506F696E743E003C537461727458
:102BF000204D657368204C6576656C696E673E0094
:102C00003C5374617274204D657368204C65766521
:102C10006C696E673E003C50726568656174206245
:102C200065643E003C50726568656174206265644D
:102C30003E003C5A20446F776E20302E313E003CDF
:102C40005A20446F776E20302E313E003C5A20448B
:102C50006F776E20302E30323E003C5A20446F7722
:102C60006E20302E30323E003C5A20557020302EDF
:102C700030323E003C5A20557020302E30323E001B
:102C80003C5A20557020302E313E003C5A20557061
:102C900020302E313E0056313136004A3333200089
:102CA0004D3530300A4D3432302053310A4731200F
:102CB0005A313020463234300A47312058302059BA
:102CC00030204636303030004A3232004A3232004C
:102CD0004731205A3520463234300A4731205831A6
:102CE0003930205932302046363030300A473120D2
:102CF0005A302046323430004731205A352046328F
:102D000034300A4731205831393020593139302098
:102D100046363030300A4731205A3020463234307F
:102D2000004731205A3520463234300A4731205886
:102D3000313930205932302046363030300A473170
:102D4000205A302046323430004739310A4731208A
:102D50005A313020463234300A4739300A47323847
:102D60000A4732390A473120583230205932302050
:102D700046363030300A4731205A3020463234301F
:102D8000004A3032004A3132004731205A31300097
:102D90004F4B004731205A3130004739300047311E
:102DA000204525694635303000473120452D302EED
:102DB000314625690047312045302E3146256900CE
:102DC0004731205A2569462569004731205A2D3060
:102DD0002E31462569004731205A302E314625696B
:102DE0000047312059256946256900473120592D72
:102DF000302E314625690047312059302E31462585
:102E00006900473120582569462569004731205817
:102E10002D302E314625690047312058302E31465D
:102E20002569004739310047323800473238205A87
:102E3000004732382059004732382058004132309C
:102E40005620004731205A3130004A3034004A328F
:102E500031004A3230004A3136004A303400454EA3
:102E60004400464E20004A3032003939393A393967
:102E700039004D0048004137562000413656202D7C
:102E80002D2D004A30320041365620005A3A20009B
:102E9000593A2000583A2000413556004134562016
:102EA0000041335620004132562000413156200067
:102EB00041305620004D3237004D3834004739310B
:102EC0000A473120452D312046313830300A473904
:102ED00030004A3136004D313235204C32004A3113
:102EE00038004A3134004A3030004A3031004A312B
:102EF00030002066697273740A005A005900580045
:102F0000486F6D6520004A3233004D323500473935
:102F10003000473120452D332046313830300047CE
:102F200039310057726974696E6720746F20666961
:102F30006C653A20006F70656E206661696C65642F
:102F40002C2046696C653A20006F70656E206661C2
:102F5000696C65642C2046696C653A200046696C92
:102F6000652073656C65637465640A002053697A33
:102F7000653A200046696C65206F70656E65643A3D
:102F800020002066696C653A2000646F696E6700F6
:102F90006672657368004E6F772000454E4420537B
:102FA0005542524F5554494E450A002220706F73C6
:102FB000002220706172656E743A220053554252AD
:102FC0004F5554494E452043414C4C207461726723
:102FD00065743A2200747279696E6720746F206399
:102FE000616C6C207375622D67636F646520666920
:102FF0006C6573207769746820746F6F206D616EE3
:1030000079206C6576656C732E204D4158206C6577
:1030100076656C2069733A006F70656E2066616931
:103020006C65642C2046696C653A200043616E6EC5
:103030006F74206F70656E20737562646972200012
:103040004A3131005072696E7465722068616C7427
:1030500065642E206B696C6C28292063616C6C653B
:1030600064210A0053442063617264206F6B0A007C
:103070006F70656E526F6F74206661696C65640A6B
:1030800000766F6C756D652E696E69742066616976
:103090006C65640A004572726F723A00534420698D
:1030A0006E6974206661696C0A006563686F3A0036
:1030B00056E7B3E511241FBECFEFD1E2DEBFCDBF8F
:1030C00000E00CBF14E0A0E0B2E0E4EFF7EF01E0B5
:1030D0000BBF02C007900D92A833B107D9F72CE1BE
:1030E000A8E3B4E001C01D92A737B207E1F718E1E9
:1030F000C9E5D8E100E006C021970109802FFE0153
:103100000E9455FBC835D10780E00807A9F70E9447
:1031100005E90C94E8FB0C94000090916F00292FB6
:10312000227091FF05C090916F009D7F90936F007A
:1031300034E0839FC0011124FC01EE52FC4E40811B
:103140005181628173818753924FFC014083518387
:103150006283738381E080936E06222329F080913D
:103160006F00826080936F000895BC012091C70DAD
:103170003091C80D4091C70D5091C80D24173507E7
:1031800031F481E02617370709F080E008959A01AD
:10319000F1CFEF92FF920F931F93E0926606F092A9
:1031A0006706009368061093690660936A06709339
:1031B0006B0680936C069FEFFF27621B730B840BDB
:1031C00030F4809570956195790B890B99279093D0
:1031D000350EA6E06A9F0092290E512DEE277A9FA8
:1031E000500DE11D8A9FE00D50932A0EE0932B0EA7
:1031F000AFE06A9F00922D0E512DEE277A9F500D61
:10320000E11D8A9FE00D50932E0EE0932F0EAAE051
:103210006A9F0092310E512DEE277A9F500DE11DCD
:103220008A9FE00D5093320EE093330E1F910F9161
:10323000FF90EF90089580915C1690915D16891B28
:103240008F7019F490E080E00895909159169923B9
:1032500051F0833030F48FEF890F19F080935916B5
:10326000F1CF1092591680915D1628E6829FC00119
:1032700011248B50994FFC01208120FDE3CF209138
:103280005D162F5F2F7020935A1630915D16209196
:103290005B16321304C020915A1620935B160895D2
:1032A0009F92AF92BF92CF92DF92EF92FF920F93D5
:1032B0001F93CF93DF9300D01F921F92CDB7DEB73D
:1032C000ECE7FAE00027BB27462F572FA82FAA23A9
:1032D00041F4A52F542FB85FAA2319F4A52F552721
:1032E000B85FA03138F45295A295452F4F70507FAA
:1032F000A42BBC5FA03428F4550FAA1F550FAA1F9A
:10330000BE5FA03818F4550FAA1FB395550FAA1F1A
:10331000EA0FF01F449151E0AA27B85081F1C8F09C
:10332000B0FF02C0440F551FB1FF04C0440F551F2A
:10333000440F551FB2FF06C052954295142F1F70BF
:10334000407F512BB3FF1BC0A52F542F44270C9453
:10335000BF19B195B0FF02C055954795B1FF04C0A4
:103360005595479555954795B2FF05C05295407FB5
:103370004295452B5F70B3FF02C0452F5527DD24D2
:10338000CC24BB24B2E0649FD018C108B00AB00BB3
:10339000749FC018B108B00B849FB018B109659F25
:1033A000C018B108B00B759FB018B109859FB0194E
:1033B0006A9FB018B1097A9FB0194D9DA12C99242C
:1033C0003327992722275D9DA00C911C301F901F49
:1033D000201FAD9D900C311D901F201F4C9DA00CF7
:1033E000911C301F901F201F5C9D900C311D901F61
:1033F000201FAC9D300D911D201F4B9D900C311D49
:10340000901F201F5B9D300D911D201FAB9D900DC7
:10341000211D4B9F300D911D201F5B9F900D211D85
:10342000AB9F200DB1E0BB24CC24DD24639FD018DA
:10343000C108B00AB00B739FC018B108B00B839FCE
:10344000B018B109699FC018B108B00B799FB018C6
:10345000B109899FB019629FB018B109729FB01964
:10346000D61AC70AB80A20F0B1E03B0F901F201F00
:103470001124792F632F90E0822F0F900F900F90DF
:103480000F900F90DF91CF911F910F91FF90EF90D0
:10349000DF90CF90BF90AF909F900895CF93DF9330
:1034A00090916F00292F227091FF05C090916F00BD
:1034B0009D7F90936F0094E0899FA0011124FA01F1
:1034C000EE52FC4E6081718182819381222329F02A
:1034D00020916F00226020936F00EA01CF51D94FF5
:1034E0000E948BF3288139814A815B810E94EAF333
:1034F000DF91CF9108952F923F924F925F926F92FA
:103500007F928F929F92AF92BF92CF92DF92EF9273
:10351000FF920F931F93CF93DF93CDB7DEB76297E0
:103520000FB6F894DEBF0FBECDBF588B4F87DC01BE
:103530008D909D90AD90BC90DB018D919D910D90F3
:10354000BC91A02D89839A83AB83BC8320E030E0BB
:1035500040E251E4C501B4010E940CF82BEA3AEABA
:103560004AEA5CE30E94EAF30E9479F964300CF4C1
:103570001FC163E0E62E660FFF0887010F5F1F4F34
:1035800020E030E040E251E469817A818B819C81C6
:103590000E940CF82BEA3AEA4AEA5CE30E94EAF35A
:1035A0000E9479F964300CF407C163E0262E660F9F
:1035B0003308F701EE0FFF1FEE0FFF1FEA55F94E1C
:1035C000408051806280738025E02E9DF0012F9D08
:1035D000F00D1124FE83ED83E20DF31DEE0FFF1FAE
:1035E000EE0FFF1FE056FA4FC080D180E280F380DB
:1035F000F801EE0FFF1FEE0FFF1FEA55F94EA30172
:10360000920160817181828193810E940CF86F83A5
:10361000788789879A87A3019201C501B4010E9426
:103620000CF86B877C878D879E87A5E0A09FC001E3
:10363000A19F900D11249A8B898BFC01E20DF31D43
:10364000EE0FFF1FEE0FFF1FE056FA4FA701960186
:1036500060817181828193810E940CF82F8138856D
:1036600049855A850E9407F92B853C854D855E85E5
:103670000E94EAF3A70196010E940DF86B017C01FC
:1036800081010F5F1F4FED81FE81E00FF11FEE0FF3
:10369000FF1FEE0FFF1FE056FA4F408051806280FF
:1036A0007380F101EE0FFF1FEE0FFF1FEE56F94E74
:1036B00080809180A280B380E989FA89E00FF11FB0
:1036C000EE0FFF1FEE0FFF1FE056FA4FA30192010E
:1036D00060817181828193810E940CF82F813885ED
:1036E00049855A850E9407F92B853C854D855E8565
:1036F0000E94EAF3A30192010E940DF8A70196012E
:103700000E940CF82B013C01000F111F000F111F2C
:10371000F801EE56F94EA501940160817181828114
:1037200093810E940CF89B01AC01C301B2010E947D
:1037300007F92B013C01A501940169817A818B81F4
:103740009C810E940CF89B01AC01C301B2010E9454
:10375000EAF3A70196010E940DF8EF85F889208110
:103760003181428153810E94EAF320919C0530917E
:103770009D0540919E0550919F050E940DF862960F
:103780000FB6F894DEBF0FBECDBFDF91CF911F9172
:103790000F91FF90EF90DF90CF90BF90AF909F90F0
:1037A0008F907F906F905F904F903F902F900895F3
:1037B00067FFE0CE60E0DECE67FFF8CE60E0F6CED9
:1037C0008F929F92AF92BF92CF92DF92EF92FF9231
:1037D000CF93DF93EC018090CE139090CF13A09005
:1037E000D013B090D11320E030E0A901C501B4019D
:1037F0000E9484F3882309F454C0C880D980EA80E9
:10380000FB80A7019601C501B4010E9484F318163C
:103810000CF04CC02091C5133091C6134091C713D2
:103820005091C813C701B6010E9484F3882331F177
:10383000C092C513D092C613E092C713F092C8137A
:103840002091C9133091CA134091CB135091CC13DE
:10385000688179818A819B810E94EAF39B01AC0196
:1038600060E070E080E89FE30E940CF8609316022D
:1038700070931702809318029093190260911602B8
:10388000709117028091180290911902DF91CF91E7
:10389000FF90EF90DF90CF90BF90AF909F908F9070
:1038A000089560E070E080E89FE3F0CF60E070E0B2
:1038B000CB01ECCFCF93DF938091D6069091D706C2
:1038C00065998DC081609093D7068093D60620912C
:1038D00009018091D6069091D70627FD82C08260AB
:1038E0009093D7068093D6068091D6069091D706FE
:1038F0004B9979C084609093D7068093D606209127
:1039000009018091D6069091D70626FD6EC0986079
:103910009093D7068093D6068091D6069091D706CD
:103920002091D4063091D5062817390709F45FC0D5
:1039300022E02093D3069093D5068093D4068091FD
:10394000950F882309F462C0C091BA0DC0FF10C062
:1039500080917C0D80FF0CC08091770D80FF08C0A6
:103960008091AA0F81608093AA0F80E00E948D1839
:10397000C1FF10C080917C0D81FF0CC08091770D3C
:1039800081FF08C08091AA0F82608093AA0F81E016
:103990000E948D18C2FF3AC080917C0D82FF36C014
:1039A0002091770D3091780DC90196958795969560
:1039B0008795817092E033FF90E0892B39F19091E7
:1039C000AA0F94609093AA0F9091790D992311F00A
:1039D0008330E1F482E0DF91CF910C948D188E7FDB
:1039E00072CF8D7F7DCF8B7F86CF977F91CF809158
:1039F000D306882309F4A3CF81508093D306811185
:103A00009ECF3093780D2093770D99CFDF91CF9192
:103A10000895CF92DF92EF92FF92CF93DF93EC0164
:103A2000C0908205D0908305E0908405F0908505D4
:103A3000A7019601688179818A819B810E9484F324
:103A400087FF04C0C882D982EA82FB82C0908605C3
:103A5000D0908705E0908805F0908905A701960130
:103A60006C817D818E819F810E9484F387FF04C0D9
:103A7000CC82DD82EE82FF82C0900A02D0900B02DF
:103A8000E0900C02F0900D02A70196016881798107
:103A90008A819B810E946DFA181624F4C882D9820B
:103AA000EA82FB82C0900E02D0900F02E0901002DA
:103AB000F0901102A70196016C817D818E819F811A
:103AC0000E946DFA181624F4CC82DD82EE82FF8209
:103AD000C0908A05D0908B05E0908C05F0908D0504
:103AE000A7019601688579858A859B850E9484F364
:103AF00087FF04C0C886D986EA86FB86C09012027A
:103B0000D0901302E0901402F0901502A7019601E4
:103B1000688579858A859B850E946DFA181624F43C
:103B2000C886D986EA86FB86DF91CF91FF90EF9019
:103B3000DF90CF9008951F93CF93DF93182FEB0161
:103B4000FE018491219681110AC0C4E2D8E0FE01F1
:103B500084912196882331F00E945F83F8CF0E94E0
:103B60005F83EECFCFE1D8E0112311F0C5E1D8E0BB
:103B7000FE0184912196882319F00E945F83F8CF7B
:103B80008AE0DF91CF911F910C945F83CF93DF93F5
:103B90008C3D9240A1F0C5E9D0E3FE0184912196CD
:103BA00081110AC0C7E4D4E0FE01849121968823E4
:103BB00051F00E945F83F8CF0E945F83EECF80E0D8
:103BC000DF91CF91089581E0FBCF8091830F88230F
:103BD00041F040E150E063E370E084E89FE00C9442
:103BE00069F708952F923F924F925F926F927F9262
:103BF0008F929F92AF92BF92CF92DF92EF92FF92FD
:103C00000F931F93CF93DF93CDB7DEB76C970FB6AB
:103C1000F894DEBF0FBECDBF8C015B015A83498390
:103C2000FC01EE5AFF4F2081318142815381298B63
:103C30003A8B4B8B5C8BCA01B9010E9489F36B01F3
:103C40007C01D5012D913D914D915C910E94EAF34B
:103C50000E94EBF80E9480F94B015C01E981FA8136
:103C60002081318142815381C701B6010E94EAF36C
:103C70000E94EBF80E9480F989869A86AB86BC8602
:103C800029853A854B855C852837310541055105E5
:103C900040F428E730E040E050E029873A874B873E
:103CA0005C876D837E838F8398874D815E816F8172
:103CB0007885483751056105710540F468E770E083
:103CC00080E090E06D837E838F839887F801E25ACD
:103CD000FF4F4080518062807380C301B2010E9417
:103CE0008BF369837A838B839C8369857A858B8543
:103CF0009C850E9489F36D8B7E8B8F8B988F20E043
:103D000030E0A90169817A818B819C810E9484F3D2
:103D1000882309F4E1C1A7019601C701B6010E94F9
:103D2000EAF34B015C012D893E894F89588DCA0108
:103D3000B9010E94EAF39B01AC01C501B4010E94E4
:103D40000CF84B015C0129813A814B815C81CA01ED
:103D5000B9010E940DF89B01AC01C501B4010E949C
:103D600007F90E94EBF80E9480F96D877E878F87A4
:103D7000988B66277727CB016419750986099709FF
:103D80000E948BF34B015C016D817E818F81988550
:103D90000E9489F32B013C0120E030E0A901C5011C
:103DA000B4010E9484F3882309F49AC1A30192010B
:103DB000C301B2010E94EAF3698F7A8F8B8F9C8FC7
:103DC000A7019601C701B6010E94EAF39B01AC016D
:103DD000698D7A8D8B8D9C8D0E940CF86B017C0116
:103DE000A5019401C501B4010E940DF89B01AC012D
:103DF000C701B6010E9407F90E94AFF9D801959654
:103E00008D909D90AD90BC909897750164012D8523
:103E10003E854F855889C21AD30AE40AF50A0E94E2
:103E200080F9C61AD70AE80AF90AF7FE8EC02D896A
:103E30003E894F89588DCA01B9010E94EAF36B018E
:103E40007C0129813A814B815C81CA01B9010E94C0
:103E50000DF8698B7A8B8B8B9C8B20E030E0A9016D
:103E600069817A818B819C810E9484F3882309F483
:103E70003BC1C501B4010E9489F329893A894B8964
:103E80005C890E94EAF3A70196010E940CF86D87F5
:103E90007E878F87988BA3019201C301B2010E9494
:103EA000EAF39B01AC016D857E858F8598890E9420
:103EB0000DF82B013C0120E030E040E850E469813E
:103EC0007A818B819C810E94EAF39B01AC01C30142
:103ED000B2010E9407F90E94EBF82B013C0120E09F
:103EE00030E0A9010E946DFA18161CF0412C512CEB
:103EF0003201C301B2010E9480F96D877E878F87EE
:103F0000988B86169706A806B90620F48D869E869D
:103F1000AF86B88A6D857E858F8598890E9489F3E2
:103F200029893A894B895C890E94EAF3A7019601A5
:103F30000E940DF80E94BBFA0E9480F9698B7A8B6F
:103F40008B8B9C8BC12CD12C760169897A898B89CA
:103F50009C8929853A854B855C85621B730B840B94
:103F6000950B0E9489F329813A814B815C810E94E3
:103F700007F920E034E244EF59E40E94EAF30E949A
:103F800080F94B015C0169897A898B899C892D8133
:103F90003E814F815885621B730B840B950B0E94E9
:103FA00089F329813A814B815C810E9407F920E0E5
:103FB00034E244EF59E40E94EAF30E9480F92B01B5
:103FC0003C013FE683169104A104B10408F090C0BF
:103FD000F401EE0FFF1FEE0FFF1FEA57F74F859119
:103FE0009591A591B4918983292E3A2EBD8B4FE6E8
:103FF000441651046104710408F083C0F201EE0F0D
:10400000FF1FEE0FFF1FEA57F74F4591559165913E
:1040100074919A01CB014D855E856F857889D801B1
:104020009A964D935D936D937C939D974C0D5D1D7A
:104030006E1D7F1DF80146A757A760AB71ABEA5A0A
:10404000FF4F49855A856B857C8540835183628308
:104050007383D6968D929D92AD92BC92D997F801BA
:1040600042AE53AE64AE75AEFE9649814083218266
:1040700032825D8953833496208331838283938394
:1040800069897A898B899C89D2966D937D938D936A
:104090009C93D59778962D813E814F8158852083BA
:1040A0003183428353836C960FB6F894DEBF0FBE04
:1040B000CDBFDF91CF911F910F91FF90EF90DF90D7
:1040C000CF90BF90AF909F908F907F906F905F90B8
:1040D0004F903F902F90089560E070E0CB0141CE6B
:1040E00060E070E0CB0188CE60E070E0CB01F3CE01
:1040F000C501B4010E9450196983272E382E9D8B6B
:1041000076CFC301B2010E9450199B0184CF8F92D8
:104110009F92AF92BF92CF92DF92EF92FF920F9356
:10412000CF93DF931F92CDB7DEB76C017B014901BE
:104130008091CE065B01A40EB51E8823A1F0F60186
:1041400080819181480F591F518340830F90DF91E7
:10415000CF910F91FF90EF90DF90CF90BF90AF90F5
:104160009F908F900895F601808191810E9461F760
:10417000898390918F05992311F0002311F0F701A5
:104180008083BE016F5F7F4FC4010E9476C8F60135
:1041900080819181019691838083FFEFEF1AFF0A5E
:1041A000EA14FB0401F7D2CF7F928F929F92AF92D5
:1041B000BF92CF92DF92EF92FF920F931F93CF9314
:1041C000DF931F92CDB7DEB7E091CE06E11133C089
:1041D00059018C017B016B01C40ED51EEC14FD044A
:1041E00089F1F80180809180F70171907F017982D7
:1041F000C4010E9461F7781609F43AC0672DC40122
:104200000E948BF7C4010E9461F79981891781F19F
:104210000AEA10E3F80184910F5F1F4F811121C05A
:104220000DE214E0F80184910F5F1F4F8823E1F045
:104230000E945F83F7CFFC0120813181420F531F21
:10424000518340830F90DF91CF911F910F91FF9089
:10425000EF90DF90CF90BF90AF909F908F907F9026
:1042600008950E945F83D6CF81E08093CE06EACF87
:10427000BE016F5F7F4FC5010E9476C8F801808143
:104280009181019691838083A9CF0F930FB70F93EC
:1042900000916E000B7F00936E0078940F930BB724
:1042A0000F930CB70F921F922F933F934F935F93EF
:1042B0006F937F938F939F93AF93BF93EF93FF93EE
:1042C00011240E948A30FF91EF91BF91AF919F918D
:1042D0008F917F916F915F914F913F912F911F909F
:1042E0000F900CBF0F910BBF0F910460F8940093D7
:1042F0006E000F910FBF0F911895CF92DF92EF9242
:10430000FF92C0901F14D0902014E0902114F090E0
:10431000221460911D1470911E1466507109072EAD
:10432000000C880B990B0E948BF3A70196010E9449
:104330006DFA18160CF520E030E040E050E4C701BB
:10434000B6010E940DF80E9480F970930A0E6093E6
:10435000090E0E94D9CA605A75418F4F9F4F6093D2
:10436000050E7093060E8093070E9093080EFF9033
:10437000EF90DF90CF9008951092050E1092060EE8
:104380001092070E1092080EF2CF8F929F92AF926A
:10439000BF92CF92DF92EF92FF920F931F93CF9332
:1043A000DF93B0E4A0E06A2F70E0AB014B0F511D2A
:1043B00055954795A41711F0B41319C0ECE0F5E139
:1043C00065917491072E000C880B990B0E948BF35A
:1043D000DF91CF911F910F91FF90EF90DF90CF90E1
:1043E000BF90AF909F908F900895B42FDECF9A0129
:1043F00021503109220F331F220F331FF901E25FD1
:10440000FB4EE590F490F901EE5EFB4EC591D49120
:104410008E159F0554F3A42FC817D9070CF4C3CFEA
:10442000F901E05FFB4E05911491F901EC5EFB4E42
:10443000C590D490BC016E197F09072E000C880B23
:10444000990B0E948BF34B015C01B601601B710B51
:10445000072E000C880B990B0E948BF39B01AC017B
:10446000C501B4010E94EAF34B015C01BE016E1963
:104470007F09072E000C880B990B0E948BF39B0180
:10448000AC01C501B4010E9407F96B017C01B801C0
:10449000110F880B990B0E948BF39B01AC01C70194
:1044A000B6010E940DF894CF8091170E9091180ECE
:1044B0000E9400CD60935516709356168093571640
:1044C000909358168091150E9091160E0E94C5215A
:1044D00060931F14709320148093211490932214DE
:1044E000A895109291060895AF92BF92CF92DF9255
:1044F000EF92FF920F931F93CF93DF9320E030E072
:1045000048E452E460915516709156168091571602
:10451000909158160E946DFAC0E0181644F4E2EA31
:10452000F3E1E491C1E001C0CC0FEA95EAF7D12CA8
:10453000C12CA12CD0E0EE24E394F12CF601E4563A
:10454000FC4EB490F601EE55FC4E0491B7FC23C02E
:104550008A2D90E0002E02C0959587950A94E2F787
:1045600080FD19C0BE01002E02C0759567950A94A2
:10457000E2F76170162F1195612F8B2D0E94D1C823
:10458000612F70E08B2D0E94CFC9C70101C0880F39
:104590000A95EAF7A82A8FEFC81AD80A86E0C81643
:1045A000D10461F6DF91CF911F910F91FF90EF90B1
:1045B000DF90CF90BF90AF9008950F931F9380919D
:1045C0006F06813019F50E94D9CA0091D90D10915A
:1045D000DA0D2091DB0D3091DC0D601B710B820B2D
:1045E000930B28EE33E040E050E00E94A9F7609181
:1045F000D50D7091D60D8091D70D9091D80D620F89
:10460000731F841F951F1F910F9108956091DD0DF9
:104610007091DE0D8091DF0D9091E00DD6CF10925C
:104620006F061092D90D1092DA0D1092DB0D1092D8
:10463000DC0D1092DD0D1092DE0D1092DF0D109248
:10464000E00D1092D50D1092D60D1092D70D10924C
:10465000D80D089580916F06813079F482E08093BF
:104660006F060E94D9CA6093DD0D7093DE0D8093B2
:10467000DF0D9093E00D81E0089580E008950F93A1
:104680000FB70F9300916E000F930B7F00936E0096
:1046900000916F000D7F00936F000F930BB70F9386
:1046A0000CB70F921F922F933F934F935F936F938B
:1046B0007F938F939F93AF93BF93EF93FF931124B7
:1046C0000E94AC23FF91EF91BF91AF919F918F9189
:1046D0007F916F915F914F913F912F911F900F901C
:1046E0000CBF0F910BBF0F910260F89400936F0005
:1046F0000F9100936E000F910FBF0F91189580914D
:104700007C0D80FF1AC0899A8FEF80932C028091D4
:104710007C0D81FF15C08F988FEF80932D028091C3
:104720007C0D82FF10C080910B0182708093090183
:1047300043988FEF80932E020895899881E0E5CF0A
:104740008F9A81E0EACF80910B01809582708093EF
:104750000901439A81E0EECF2F923F924F925F92F0
:104760006F927F928F929F92AF92BF92CF92DF9281
:10477000EF92FF920F931F93CF93DF93CDB7DEB7E6
:1047800067970FB6F894DEBF0FBECDBFF8948FEFDA
:104790009FEF90938900809388002AE02D83312C2D
:1047A000212C78948091C30D9091C40DA091C50DDA
:1047B000B091C60D892B8A2B8B2B09F018C28091E2
:1047C0006E068823E1F08091C70D9091C80D10927C
:1047D0006E06892B09F40BC21092BA0D1092C80D07
:1047E0001092C70D90915C1680915D16981709F490
:1047F000FEC180915D168F5F8F7080935D168091F2
:10480000C70D9091C80D892B09F4F1C14091BF0DDE
:104810005091C00D6091C10D7091C20D8091BB0D82
:104820009091BC0DA091BD0DB091BE0D0091B10D48
:1048300010E030E020E0841B950BA60BB70B0817A7
:1048400019072A073B0710F4D901C801E82F840F84
:10485000951FA61FB71F8093BF0D9093C00DA09307
:10486000C10DB093C20D2091840030918500245E6B
:104870003F4F8091960D9091970DA091980DB0911A
:10488000990D4091860D5091870D6091880D709122
:10489000890D840F951FA61FB71F8093960D9093C7
:1048A000970DA093980DB093990DB7FD1CC0889AF1
:1048B0004091D2135091D3136091D4137091D513BA
:1048C00080912C02082E000C990BAA0BBB0B840FB5
:1048D000951FA61FB71F8093D2139093D313A09355
:1048E000D413B093D51380919A0D90919B0DA09104
:1048F0009C0DB0919D0D40918A0D50918B0D609152
:104900008C0D70918D0D840F951FA61FB71F80937E
:104910009A0D90939B0DA0939C0DB0939D0DB7FDA8
:104920001CC08E9A4091D6135091D7136091D81322
:104930007091D91380912D02082E000C990BAA0BAF
:10494000BB0B840F951FA61FB71F8093D6139093A0
:10495000D713A093D813B093D91380919E0D909143
:104960009F0DA091A00DB091A10D40918E0D509181
:104970008F0D6091900D7091910D840F951FA61F62
:10498000B71F80939E0D90939F0DA093A00DB093A1
:10499000A10DB7FD3DC08091790DF0912E028823C5
:1049A00009F416C18091770D82FF02C0F7FD0AC09D
:1049B0008091760D811106C080910B0180958870E1
:1049C000809309018091770D9091780D93FF02C03B
:1049D000F7FD05C08091750D811101C0419A40918C
:1049E000DA135091DB136091DC137091DD138F2F7C
:1049F000FF0F990BAA0BBB0B840F951FA61FB71FA8
:104A00008093DA139093DB13A093DC13B093DD1340
:104A10004091A20D5091A30D6091A40D7091A50D30
:104A20008091920D9091930DA091940DB091950D60
:104A3000840F951FA61FB71F8093A20D9093A30DFF
:104A4000A093A40DB093A50DB7FD38C0C090DE13A0
:104A5000D090DF13E090E013F090E11340912F022B
:104A6000042E000C550B660B770B4C0D5D1D6E1D57
:104A70007F1D4093DE135093DF136093E013709318
:104A8000E1134091820D5091830D6091840D7091DE
:104A9000850D841B950BA60BB70B8093A20D9093ED
:104AA000A30DA093A40DB093A50D8091AF0D90918F
:104AB0007C0D93FF94C081508093AF0D8091960D33
:104AC0009091970DA091980DB091990DB7FD15C0DB
:104AD0004091820D5091830D6091840D7091850DF0
:104AE000841B950BA60BB70B8093960D9093970D97
:104AF000A093980DB093990D889880919A0D9091FC
:104B00009B0DA0919C0DB0919D0DB7FD15C04091DE
:104B1000820D5091830D6091840D7091850D841BE1
:104B2000950BA60BB70B80939A0D90939B0DA093BA
:104B30009C0DB0939D0D8E9880919E0D90919F0D30
:104B4000A091A00DB091A10DB7FD38C04091820D8C
:104B50005091830D6091840D7091850D841B950B90
:104B6000A60BB70B80939E0D90939F0DA093A00D65
:104B7000B093A10D8091790D882399F18091770DE3
:104B800082FF04C080912E0287FD09C08091760DBE
:104B9000811105C080910B0188708093090180917B
:104BA000770D9091780D93FF04C080912E0287FDC0
:104BB00005C08091750D811101C04198E150B9F097
:104BC000809184009091850082179307C8F351CE9D
:104BD00080910B018095887080930901FFCE8F5FD3
:104BE0006BCF80910B01887080930901E6CF809193
:104BF000390290913A02A0913B02B0913C02892B7C
:104C00008A2B8B2B09F08AC08091B00D882309F480
:104C100075C04091AF0D8090BF0D9090C00DA090D9
:104C2000C10DB090C20DC090AB0DD090AC0DE09016
:104C3000AD0DF090AE0DC814D904EA04FB04F0F5F4
:104C400080917A0D90917B0D20917F0D3091800D98
:104C50002817390798F541504093AF0D019790936D
:104C60007B0D80937A0D4091350250913602609110
:104C70003702709138028091AF0D87FD43C0169ABC
:104C800080918400909185004C962091AF0D222355
:104C9000E9F1149A2091AF0D27FF36C02F5F2093C2
:104CA000AF0D14982091AF0D222379F32091840049
:104CB0003091850028173907C8F3E7CF8C149D047D
:104CC000AE04BF0480F480917A0D90917B0D209109
:104CD0007D0D30917E0D8217930728F44F5F40932E
:104CE000AF0D0196BCCF8FEF9FEFDC0180933502B3
:104CF00090933602A0933702B09338024FEF5FEFE4
:104D0000BA01B9CF1698BCCF2150C9CF4093390210
:104D100050933A0260933B0270933C028091C30D22
:104D20009091C40DA091C50DB091C60D892B8A2B11
:104D30008B2B11F00C94632EA091C70DB091C80D70
:104D4000BF8BAE8BAB2B11F40C94032F4090BF0D97
:104D50005090C00D6090C10D7090C20D8091BB0D40
:104D60009091BC0DA091BD0DB091BE0D4816590695
:104D70006A067B0608F477C01092BA0D1092C80D2F
:104D80001092C70D90915C1680915D16981711F4E2
:104D90000C94032F80915D168F5F8F7080935D164A
:104DA000A0EDCA2EA7E0DA2EE12CF12C8091C70DE0
:104DB0009091C80D892B11F00C945B2E0E941B1949
:104DC0009093C80D8093C70D892B11F40C945B2E22
:104DD0002091C70D3091C80D3A832983D9018C9158
:104DE00083FD02C00C94C02CF90185899689A7899E
:104DF000B08D8093D2139093D313A093D413B09318
:104E0000D513818D928DA38DB48D8093D6139093FD
:104E1000D713A093D813B093D913858D968DA78DF2
:104E2000B0A18093DA139093DB13A093DC13B093BB
:104E3000DD1381A192A1A3A1B4A18093DE1390936D
:104E4000DF13A093E013B093E11390915C1680916F
:104E50005D16981709F4B2CF80915D168F5F8F7041
:104E600080935D16ABCF8091B60D9091B70DA09158
:104E7000B80DB091B90D84159505A605B70508F4D0
:104E800038C24091B20D5091B30D6091B40D709144
:104E9000B50DEE89FF8986A997A9A0ADB1AD4817D8
:104EA00059076A077B0708F0FAC1411551056105EA
:104EB000710509F08FC080906A0690906B06A090F3
:104EC0006C06B0906D068CE793E1A1E0FC010591C2
:104ED000159125913491081519052A053B0558F4BB
:104EE000B694A79497948794AA0F0496E8E9F3E1FF
:104EF000E817F90759F7A093B10DF0E28F16910466
:104F0000A104B10428F4E0E28E2E912CA12CB12C46
:104F100020E2821A9108A108B108811438E09306B2
:104F2000A104B10408F4C4C1A4E09A9EC0011124F4
:104F30008458904FFC01329625913491B82DEE277C
:104F4000B39F8001B29F010D1E1F06940E1F1E1FEE
:104F5000112430E020E0FC01C590D490F12CE12C2C
:104F6000C01AD10AE20AF30A4C0D5D1D6E1D7F1DA9
:104F70004093B20D5093B30D6093B40D7093B50D83
:104F80008091AF0D9091B00D992309F43DC4882311
:104F900009F40CCF2E893F89285B3F4FD9018D91B1
:104FA0009C91B0E0A0E040913502509136026091B2
:104FB00037027091380284179507A607B70709F4DE
:104FC000F5CE1092390210923A0210923B021092E2
:104FD0003C02ECCEF12C0E81942F852E862F1F8162
:104FE000B885A985FA85EB853C852D85E091660617
:104FF000E99FA12DFF2730916706399FA00DF11D74
:1050000010906806199EF00DE89DA00DF11D389DC9
:10501000F00DE89FF00D1A2FBF2F1A9FE12D3327B7
:1050200022271F9FE00D311D2F1DBA9FE00D311D5E
:105030002F1DBF9F300D211D132FB22F1A9F012D41
:10504000332722271F9F000D311D2F1DBA9F000DF2
:10505000311D2F1DBF9F300D211D132FB22FEE27A5
:1050600090916A0680906B0680916C060090350ED8
:105070000F2809F484C03091310E319FE1199F0946
:105080008F088F092091320E219FE01991098F0816
:105090008F090091330E019F901981088F093B9F62
:1050A000E01991098F088F092B9F901981088F09AA
:1050B0000B9F801881091A9F012D332722271F9FDC
:1050C000000D311D2F1DBA9F000D311D2F1DBF9FDB
:1050D000300D211D132FB22F30912D0E319FE10D78
:1050E0009F1D8F1C8F1D20912E0E219FE00D911D65
:1050F0008F1C8F1D00912F0E019F900D811C8F1D05
:105100003B9FE00D911D8F1C8F1D2B9F900D811CCF
:105110008F1D0B9F800C811D1A9F012D3327222785
:105120001F9F000D311D2F1DBA9F000D311D2F1D1A
:10513000BF9F300D211D132FB22F3091290E319FAB
:10514000E1199F098F088F0920912A0E219FE019EC
:1051500091098F088F0900912B0E019F90198108EA
:105160008F093B9FE01991098F088F092B9F901998
:1051700081088F090B9F801881090C944129309177
:10518000310E319FE10D9F1D8F1C8F1D2091320E1E
:10519000219FE00D911D8F1C8F1D0091330E019FEB
:1051A000900D811C8F1D3B9FE00D911D8F1C8F1D4D
:1051B0002B9F900D811C8F1D0B9F800C811D1A9FB2
:1051C000012D332722271F9F000D311D2F1DBA9F50
:1051D000000D311D2F1DBF9F300D211D132FB22F2C
:1051E00030912D0E319FE1199F098F088F09209171
:1051F0002E0E219FE01991098F088F0900912F0E23
:10520000019F901981088F093B9FE01991098F0830
:105210008F092B9F901981088F090B9F8018810996
:105220001A9F012D332722271F9F000D311D2F1D8F
:10523000BA9F000D311D2F1DBF9F300D211D132F53
:10524000B22F3091290E319FE10D9F1D8F1C8F1DB4
:1052500020912A0E219FE00D911D8F1C8F1D009122
:105260002B0E019F900D811C8F1D3B9FE00D911D0A
:105270008F1C8F1D2B9F900D811C8F1D0B9F800CF1
:10528000811D11240E831F83B887A987FA87EB87B6
:105290003C872D87982C892EB12CA82E14CEAE8950
:1052A000BF89D2968D909D90AD90BC90D5970BCE36
:1052B000D501C401B695A795979587958C7F84589D
:1052C000944FFC01C590D490FC0132962591349105
:1052D000E82DE770E29FC001E39F900D112433E0B9
:1052E000969587953A95E1F7C81AD90AF12CE12CE1
:1052F0003BCE2091AB0D3091AC0D4091AD0D509156
:10530000AE0D29833A834B835C832415350546050E
:10531000570508F07DC28090A60D9090A70DA09033
:10532000A80DB090A90D8091AA0DEE89FF89811179
:10533000C2C0EE5BFF4FE080F18002811381EE89F5
:10534000FF89E65AFF4F2081318142815381AE8926
:10535000BF89D2966D917D918D919C91D5970E9438
:10536000C918B1E0B093AA0DEE89FF8982A993A96B
:10537000A4A9B5A92CE733E111E0F90145915591B4
:1053800065917491481759076A077B0760F4B695D1
:10539000A79597958795110F2C5F3F4F48E953E1EB
:1053A0004217530751F71093B10D80329105A105B3
:1053B000B10520F480E290E0A0E0B0E08097A10980
:1053C000B109811558E09507A105B10508F4F9C1A7
:1053D00074E0979F900111242458304FF9013296C0
:1053E00045915491EE27859FB001849F610D7E1FEA
:1053F00006946E1F7E1F1124CB01B0E0A0E0F901DE
:10540000C590D490F12CE12CC81AD90AEA0AFB0AFB
:105410008C0C9D1CAE1CBF1C8092A60D9092A70DFB
:10542000A092A80DB092A90D8091B00D882309F427
:10543000E9C189819A81AB81BC81810F911DA11D38
:10544000B11D84159505A605B705D8F48091AF0D5B
:10545000882309F4ABCCEE89FF89E85BFF4F80819C
:105460009181B0E0A0E04091350250913602609108
:1054700037027091380284179507A607B70709F419
:1054800095CC1092390210923A0210923B0210927F
:105490003C028E899F89885B9F4FDC018D919C9196
:1054A000B0E0A0E08093350290933602A0933702DB
:1054B000B09338027BCC82AD93ADA4ADB5AD881668
:1054C0009906AA06BB0608F073C181149104A104D1
:1054D000B10449F480916A0690916B06A0916C0624
:1054E000B0916D0647CFB0E0AE85282D892D1A2DDD
:1054F000FF85E88979896A895B894C893D89509162
:105500006606529F712D662740916706429F700D77
:10551000611D10906806129E600D589F700D611DF0
:10552000489F600D519F600DF72FE62FF79F512D7B
:1055300044273327F69F500D411D3B1FE79F500D19
:10554000411D3B1FE69F400D311DF42FE32FF79FB8
:10555000A12D44273327F69FA00D411D3B1FE79F38
:10556000A00D411D3B1FE69F400D311DF42FE32F81
:10557000552720916A0680916B0610916C06009069
:10558000350E0B2A09F484C04091310E4F9F5119FA
:105590002B0B8B0B1B0B3091320E3F9F50192109A7
:1055A0008B0B1B0BA091330EAF9F201981091B0B96
:1055B0004E9F501921098B0B1B0B3E9F201981090F
:1055C0001B0BAE9F80191109F79FA12D442733278C
:1055D000F69FA00D411D3B1FE79FA00D411D3B1FE6
:1055E000E69F400D311DF42FE32F40912D0E4F9F6C
:1055F000510D2B1F8B1F1B1F30912E0E3F9F500DE7
:10560000211D8B1F1B1FA0912F0EAF9F200D811DF1
:105610001B1F4E9F500D211D8B1F1B1F3E9F200DDA
:10562000811D1B1FAE9F800D111DF79FA12D4427CB
:105630003327F69FA00D411D3B1FE79FA00D411D85
:105640003B1FE69F400D311DF42FE32F4091290EA3
:105650004F9F51192B0B8B0B1B0B30912A0E3F9F29
:10566000501921098B0B1B0BA0912B0EAF9F2019FA
:1056700081091B0B4E9F501921098B0B1B0B3E9F61
:10568000201981091B0BAE9F801911090C94CA2B9C
:105690004091310E4F9F510D2B1F8B1F1B1F3091BF
:1056A000320E3F9F500D211D8B1F1B1FA091330EEB
:1056B000AF9F200D811D1B1F4E9F500D211D8B1F65
:1056C0001B1F3E9F200D811D1B1FAE9F800D111DB6
:1056D000F79FA12D44273327F69FA00D411D3B1FA7
:1056E000E79FA00D411D3B1FE69F400D311DF42F8C
:1056F000E32F40912D0E4F9F51192B0B8B0B1B0B42
:1057000030912E0E3F9F501921098B0B1B0BA0913E
:105710002F0EAF9F201981091B0B4E9F5019210995
:105720008B0B1B0B3E9F201981091B0BAE9F801911
:105730001109F79FA12D44273327F69FA00D411D86
:105740003B1FE79FA00D411D3B1FE69F400D311DF4
:10575000F42FE32F4091290E4F9F510D2B1F8B1FCC
:105760001B1F30912A0E3F9F500D211D8B1F1B1FA9
:10577000A0912B0EAF9F200D811D1B1F4E9F500D22
:10578000211D8B1F1B1F3E9F200D811D1B1FAE9FC8
:10579000800D111D1124AE87FF87E88B798B6A8BF2
:1057A0005B8B4C8B3D8B982F822FB0E0A12FE2CDED
:1057B000EE89FF89E65AFF4F80819181A281B381F2
:1057C000D9CDAC01BD0176956795579547954C7F2E
:1057D0004458544FFA0125913491FA01329665915B
:1057E00074918770869FA001879F500D1124A3E0BC
:1057F00056954795AA95E1F7241B350B6901F12CC5
:10580000E12C06CE8091AF0D882309F4CFCAD9CB05
:105810008091AF0D8823E9F0EE89FF89E85BFF4FA7
:1058200080819181B0E0A0E0409135025091360234
:10583000609137027091380284179507A607B70761
:1058400041F01092390210923A0210923B021092EB
:105850003C028091310290913202A0913302B091CA
:105860003402B7FF61C0EE89FF89EE5AFF4FC08056
:10587000D180E280F3808CE793E121E0FC01459147
:105880005591659174914C155D056E057F0558F431
:10589000F694E794D794C794220F049648E953E10D
:1058A0004817590759F72093B10D50E2C516D10496
:1058B000E104F10428F470E2C72ED12CE12CF12C84
:1058C00070E2C71AD108E108F108C11488E0D806CF
:1058D000E104F10408F432C0A4E0DA9EC00111240E
:1058E0008458904FFC01329625913491BC2D662747
:1058F000B39FA001B29F410D561F0694461F561F2D
:10590000112470E060E0FC0185919491B0E0A0E08A
:10591000841B950BA60BB70B809331029093320238
:10592000A0933302B0933402C0903102D09032027F
:10593000E0903302F09034020C94D626D701C601D1
:10594000B695A795979587958C7F8458944FFC01C1
:1059500025913491FC01329645915491EC2DE770DC
:10596000E49FC001E59F900D112463E09695879513
:105970006A95E1F7281B390BC901B0E0A0E0CCCF54
:10598000A981BA8155968D909D90AD90BC90589705
:1059900081E081149104A104B10409F480E0E9815B
:1059A000FA81C18CD28CE38CF48CC114D104E10453
:1059B000F10409F08260A981BA815D964D915D91F3
:1059C0006D917C919097411551056105710509F024
:1059D00084608093BA0D1092A60D1092A70D1092BC
:1059E000A80D1092A90D1092B20D1092B30D109245
:1059F000B40D1092B50DE981FA8185A196A1A7A1F8
:105A0000B0A58093BB0D9093BC0DA093BD0DB0933A
:105A1000BE0D442455243201481A590A6A0A7B0AE9
:105A20004092A20D5092A30D6092A40D7092A50D0C
:105A300040929E0D50929F0D6092A00D7092A10D0C
:105A400040929A0D50929B0D60929C0D70929D0D0C
:105A50004092960D5092970D6092980D7092990D0C
:105A6000880C991CAA1CBB1C8092860D9092870DF5
:105A7000A092880DB092890DCC0CDD1CEE1CFF1C91
:105A8000C0928A0DD0928B0DE0928C0DF0928D0D0C
:105A9000440F551F661F771F40938E0D50938F0D37
:105AA0006093900D7093910D41A152A163A174A1D7
:105AB000440F551F661F771F4093920D5093930D0F
:105AC0006093940D7093950D880F991FAA1FBB1FAB
:105AD0008093820D9093830DA093840DB093850DD8
